:020000040800F2
:100000007806002089010008E1020008D9020008F2
:10001000DD020008430200087D0400080000000023
:1000200000000000000000000000000005030008C0
:100030004702000800000000E3020008190400085D
:10004000A3010008A3010008A3010008A301000800
:10005000A3010008A3010008A3010008A3010008F0
:10006000A3010008A3010008A3010008A3010008E0
:10007000A3010008A3010008A3010008A3010008D0
:10008000A3010008A3010008A3010008A3010008C0
:10009000A3010008A3010008A3010008A3010008B0
:1000A000A3010008A3010008A3010008A3010008A0
:1000B000A3010008A3010008A3010008A301000890
:1000C000A3010008A3010008A3010008A301000880
:1000D000A3010008A3010008A3010008A301000870
:1000E000A3010008A3010008A301000800F002F822
:1000F00000F03AF80AA090E8000C82448344AAF188
:100100000107DA4501D100F02FF8AFF2090EBAE885
:100110000F0013F0010F18BFFB1A43F0010318473B
:10012000E803000008040000103A24BF78C878C132
:10013000FAD8520724BF30C830C144BF04680C60ED
:10014000704700000023002400250026103A28BF35
:1001500078C1FBD8520728BF30C148BF0B60704739
:100160001FB51FBD10B510BD00F031F81146FFF7E7
:10017000F7FF00F0B5F900F04FF803B4FFF7F2FF16
:1001800003BC00F057F800000948804709480047C1
:10019000FEE7FEE7FEE7FEE7FEE7FEE7FEE7FEE737
:1001A000FEE7FEE704480549054A064B7047000094
:1001B0001D040008ED0000087800002078060020EB
:1001C000780200207802002070477047704775461B
:1001D00000F02CF8AE4605006946534620F00700B3
:1001E000854618B020B5FFF7DDFFBDE820404FF091
:1001F00000064FF000074FF000084FF0000B21F011
:100200000701AC46ACE8C009ACE8C009ACE8C009DD
:10021000ACE8C0098D46704710B50446AFF30080C6
:100220002046BDE81040FFF7A8BF00000048704717
:100230001800002001491820ABBEFEE7260002008E
:10024000704700BFFEE7704710B56FF0040000F084
:10025000CFF80A4800680A49B0FBF1F00949087074
:100260000846007800EB4001C1EBC0104FF6FF716B
:1002700001EAC0000449088010BD00000000002011
:1002800000127A0014000020160000200146114AD6
:1002900012884A434FF0E0235A6100229A611A46BD
:1002A000126942F001021A6100BF4FF0E0221069AA
:1002B00000F001021AB100F48032002AF5D04FF0AC
:1002C000E022126922F001024FF0E0231A610022BD
:1002D0009A6170471600002000BFFEE700BFFEE7EE
:1002E0007047704729B1064A92690243044B9A61EC
:1002F00004E0034A92698243014B9A61704700000F
:1003000000100240704710B500F002F810BD000068
:100310000CB50020019000903348006840F4803014
:100320003149086000BF3048006800F40030009098
:100330000198401C0190009818B90198B0F5A06F81
:10034000F1D12948006800F4003010B1012000907C
:1003500001E0002000900098012843D12348006864
:1003600040F01000214908600846006820F00700AE
:1003700008600846006840F0020008601A484068BB
:10038000194948600846406848600846406840F49B
:10039000806048600846406820F47C104860084649
:1003A000406840F4E81048600846006840F08070FB
:1003B000086000BF0C48006800F000700028F9D009
:1003C0000948406820F00300074948600846406833
:1003D00040F00200486000BF0348406800F00C0095
:1003E0000828F9D10CBD0000001002400020024096
:1003F000042808D14FF0E021096941F004014FF0D1
:10040000E022116107E04FF0E021096921F00401C9
:100410004FF0E022116170477047000010B513489B
:10042000006840F001001149086008464068104922
:1004300008400E494860084600680E4908400B49CC
:1004400008600846006820F480200860084640687C
:1004500020F4FE0048604FF41F008860FFF753FF50
:100460004FF000600449086010BD00000010024019
:100470000000FFF8FFFFF6FE08ED00E000BFFEE71A
:1004800010B501211020FFF72DFF0848406820F427
:100490007000064948600846406840F440104860D3
:1004A0000846C06840F40050C86010BD001001400C
:1004B00010B504460948C06820F400500749C860D8
:1004C0002046FFF7E3FE0548C06840F400500349AA
:1004D000C8602046FFF7DAFE10BD000000100140A2
:1004E000FFF79CFFFFF7B0FEFFF7CAFF0BE04FF4EA
:1004F000FA70FFF7DDFF4FF47A70FFF7C7FE4FF495
:10050000FA70FFF7D5FFF2E7280500080000002089
:10051000180000002801000840050008180000200D
:10052000600600004401000800A24A040000000028
:100530000000000001020304060708090000000093
:04000005080000ED02
:00000001FF
